:100000000C943A000C9457000C9457000C94570031
:100010000C94E6000C9470010C9457000C9457005B
:100020000C9457000C9457000C9457000C9430011A
:100030000C9457000C9457000C9457000C945700E4
:100040000C9457000C9457000C94E6020C94570043
:100050000C9457000C9457000C9457000C945700C4
:100060000C9457000C9457006364696E6F7073753D
:1000700078585B0011241FBECFEFD8E0DEBFCDBFA4
:1000800011E0A0E0B1E0EAE1F8E102C005900D92D4
:10009000A836B107D9F721E0A8E6B1E001C01D926A
:1000A000A838B207E1F70E9467030C940B0C0C947C
:1000B00000009BB19F709BB99BB1807F892B8BB94E
:1000C000299A299A299A29980895CF93C82F289870
:1000D0000E9459008C2F8295807F0E9459008FE3E7
:1000E0009FE10197F1F700C00000CF9108958111C1
:1000F00004C080E8860F0C94650080ECFBCF84B1CF
:10010000836084B98AB1806F8AB98FE59AEE0197CE
:10011000F1F700C0000080E30E9459008FE19EE4E7
:100120000197F1F700C0000080E30E9459008FEDB5
:1001300091E00197F1F700C0000080E30E945900B0
:1001400080E20E9459008FE39FE10197F1F700C020
:10015000000088E20E9465008FE00C946500CF9358
:10016000C82F289A0E9459008C2F8295807F0E9468
:1001700059008FE39FE10197F1F700C00000CF9194
:100180000895CF93DF93EC018991811103C0DF9132
:10019000CF9108950E94AF00F7CF81E00E946500E3
:1001A00080E80E94650086E591E00E94C1002FEF83
:1001B00083ED90E3215080409040E1F700C00000C3
:1001C00081E00E94650080E80C9465001F920F9208
:1001D0000FB60F9211248F939F93AF93BF9386B165
:1001E00081FD21C081E08093710180938301809320
:1001F0007D0110928500109284001092840110926B
:10020000850110928601109287018091810085609E
:1002100080938100BF91AF919F918F910F900FBEFE
:100220000F901F90189582FDF5CF81E080937101AA
:10023000109283018091840090918500B0E0A0E04D
:100240008093840190938501A0938601B0938701E8
:10025000109285001092840080918100887FD8CF11
:100260001F920F920FB60F9211248F93EF93FF936B
:1002700081E080936D0110928500109284001092AD
:100280007D01E1E8F0E08081887F8083FF91EF913C
:100290008F910F900FBE0F901F9018958130910590
:1002A00089F480917E0190917F018336910549F018
:1002B00080917E0190917F01019690937F018093C0
:1002C0007E010895892BE9F780917E0190917F014D
:1002D0000197B9F380917E0190917F010197EDCF55
:1002E0001F920F920FB60F9211242F933F934F93AB
:1002F0005F936F937F938F939F93AF93BF93EF938E
:10030000FF9389B121E082FB992790F9922790937E
:10031000820183FB882780F982278093680180917E
:100320006C01811114C080918201813031F480937D
:10033000700181E090E00E944E018091680181305F
:10034000F9F482E08093700190E080E017C0809122
:100350006C01813099F580918201811106C0109263
:10036000700190E080E00E944E0180916801813030
:1003700039F483E08093700181E090E00E944E01A7
:100380009091700180916C01981739F081E0809311
:100390006B018091700180936C01FF91EF91BF918F
:1003A000AF919F918F917F916F915F914F913F910D
:1003B0002F910F900FBE0F901F90189580916C0198
:1003C000823091F480918201813039F483E080930E
:1003D000700190E080E00E944E01809168018111DF
:1003E000CFCF10927001C8CF80918201811107C0D8
:1003F00082E08093700181E090E00E944E01809144
:1004000068018111BDCF81E09DCFEFE6F0E08081F2
:1004100082608083E1E8F0E08081886080831092D0
:1004200085001092840084E294EF90938900809379
:1004300088000895E0EBF0E0808183688083E1EB41
:10044000F0E080818760808387E18093B300089526
:100450009B01AC01A8EEB3E00E94CA0529E03DE390
:1004600040E050E00E94A805CA01B90108959B012F
:10047000AC0168E377EC80E090E00E94A805CA0137
:10048000B901089505966AE070E00E9494056150F4
:10049000710908F4089585E38A95F1F70000F7CF14
:1004A000CF93DF93C7E0D1E0219719F4DF91CF918B
:1004B0000895459A8AEB93E00E94420245988AEBA0
:1004C00093E00E944202F0CF29EEAC012403C00168
:1004D000259F900D112464E670E00E949405CB01E5
:1004E000839608959091C00095FFFCCF8093C6003D
:1004F0000895EF92FF920F931F93CF93DF9300D055
:1005000000D000D0CDB7DEB77F936F9382E691E045
:100510009F938F931F9286E08F938E010F5F1F4FE3
:100520001F930F930E94F8057E0187E0E80EF11CEF
:100530000FB6F894DEBF0FBECDBFF80181918F01D9
:100540000E9472020E151F05C1F726960FB6F89489
:10055000DEBF0FBECDBFDF91CF911F910F91FF90F6
:10056000EF90089520917B0130917C018091790179
:1005700090917A01821793071CF42D9A2C98089574
:1005800020917B0130917C018091790190917A01D9
:10059000281739071CF42C9A2D98089520916E0184
:1005A00030916F01809177019091780182179307C4
:1005B00024F320916E0130916F0180917701909129
:1005C0007801281739073CF32C98E6CF1F920F9239
:1005D0000FB60F9211242F933F938F939F93EF9316
:1005E000FF938091C6008B35A1F481E0809369016F
:1005F00010926A011092810110928001FF91EF9197
:100600009F918F913F912F910F900FBE0F901F9050
:1006100018958D3549F590916901992329F120911B
:1006200080013091810112161306F4F4E0918001EB
:10063000F0918101EE58FE4F10821092690181E025
:1006400080936A011092810110928001E2E7F1E04B
:100650002091800130918101CF0182579140821712
:10066000930764F61192F4CF909169019923E1F018
:1006700090ED980F9A30C0F4209180013091810163
:10068000243031058CF4E0918001F0918101EE5825
:10069000FE4F80838091800190918101019690931B
:1006A000810180938001AACF1092690110926A01A2
:1006B000E2E7F1E02091800130918101CF01825782
:1006C0009140821793070CF099CF1192F3CFCF93FB
:1006D000DF93CDB7DEB765970FB6F894DEBF0FBED8
:1006E000CDBF10926B0181E090E090937F018093E9
:1006F0007E01109271011092830110928401109278
:100700008501109286011092870110927D0110924E
:100710006D01109269011092810110928001109276
:100720006A0110927C0110927B0110926F0110926D
:100730006E0110927A011092790110927801109254
:1007400077010E9405020E941A0288B1866088B96A
:1007500087B1886287B98BB18C608BB9239A3C9A38
:1007600088B188B987E690E09093C5008093C40073
:100770008091C10088698093C10086E08093C200A7
:1007800084B1806384B90E947F000E94CD00789478
:100790008091680084608093680080916D008C6017
:1007A00080936D00809168008260809368008091E2
:1007B0006C00866080936C0089B121E082FB9927F0
:1007C00090F992279093820183FB882780F98227F2
:1007D0008093680180916801811109C18091820133
:1007E000811105C110926C0180916C0180937001A0
:1007F00060E081E00E94770080E091E00E94C1000B
:1008000064E081E00E94770090E080E00E94BA0BF3
:1008100090E090937F0180937E0180917E01909182
:100820007F01181619063CF480917E0190917F019A
:100830008436910534F081E090E090937F018093BD
:100840007E0180917E0190917F019F938F938DE136
:1008500091E09F938F931F9283E08F938E010F5EA1
:100860001F4F1F930F930E94F805C8010E94C100FB
:100870000FB6F894DEBF0FBECDBF005111093E0187
:100880003AE0630E711C80916B01882379F110921C
:100890006B0160E081E00E94770081E191E00E94BD
:1008A000C10064E081E00E94770080917E01909118
:1008B0007F019F938F938DE191E09F938F931F9280
:1008C00033E03F931F930F930E94F805C8010E94E5
:1008D000C10060917E0170917F0190E080E00E94F4
:1008E000C20B0FB6F894DEBF0FBECDBF80916A0178
:1008F000882309F447C010926A0168E081E00E94F1
:1009000077008DE291E00E94C10068E081E00E94E2
:1009100077007F926F922DE131E03F932F9322E792
:1009200031E03F932F930E9428068A859B856AE0D9
:1009300070E00E9494056B017C01FF928F93DF921F
:100940006F932AE131E03F932F931F9299E09F9399
:100950001F930F930E94F805C8010E94C10080E216
:1009600091E00E94C100D0927A01C0927901F09288
:100970007801E09277010E94B2020FB6F894DEBFD0
:100980000FBECDBF809171018823C1F0109271011B
:1009900080918301882309F442C0439A60E080E09B
:1009A0000E94770085E291E00E94C10060E080E053
:1009B0000E94770086E391E00E94C10080916D0162
:1009C000882309F460CF10926D01439860E080E0C5
:1009D0000E94770085E291E00E94C10060E080E023
:1009E0000E94770087E491E00E94C1004CCF809183
:1009F0006801811108C080918201882321F081E083
:100A000080936C01F1CE80916801882331F0809150
:100A10008201811102C082E0F3CF83E0F1CF8091A7
:100A20007D01882309F42FCF10927D01439860E067
:100A300080E00E94770085E291E00E94C10060E0C2
:100A400080E00E947700609184017091850180911F
:100A50008601909187010E9428026B017C01FF9220
:100A60008F93DF926F9380E491E09F938F931F9217
:100A700037E03F937F926F920E94F805C3010E9476
:100A8000C10084E491E00E94C10068E080E00E941F
:100A90007700B601C7010E9437021B012C012AE032
:100AA00030E040E050E00E94A80569014B013D8B19
:100AB0002C8B9F926F93DF922F938AE191E09F930B
:100AC0008F931F9237E03F931F930F930E94F80577
:100AD000C8010E94C10080E291E00E94C100C601ED
:100AE0000E9464028093B300C201B1010E947902A6
:100AF000D0927C01C0927B0190926F0180926E0136
:100B00000E94B20280917E0190917F010FB6F8940D
:100B1000DEBF0FBECDBF2C893D89281739070CF4E5
:100B20004DCF0E9450024ACF97FB072E16F4009437
:100B300007D077FD09D00E94D50507FC05D03EF40B
:100B4000909581959F4F0895709561957F4F089579
:100B5000A1E21A2EAA1BBB1BFD010DC0AA1FBB1FC1
:100B6000EE1FFF1FA217B307E407F50720F0A21B33
:100B7000B30BE40BF50B661F771F881F991F1A94A0
:100B800069F760957095809590959B01AC01BD01CA
:100B9000CF0108950E94E905A59F900DB49F900D87
:100BA000A49F800D911D11240895AA1BBB1B51E128
:100BB00007C0AA1FBB1FA617B70710F0A61BB70BCD
:100BC000881F991F5A95A9F780959095BC01CD0172
:100BD0000895A29FB001B39FC001A39F700D811D16
:100BE0001124911DB29F700D811D1124911D089536
:100BF000AEE0B0E0EEEFF5E00C94E20B0D891E895B
:100C00008F89988D26E02C831A83098397FF02C071
:100C100080E090E801979E838D83AE01455E5F4F33
:100C2000698D7A8DCE0101960E9441064D815E81CB
:100C300057FD0AC02F813885421753070CF49A01DB
:100C4000020F131FF80110822E96E4E00C94FE0BA5
:100C5000AEE0B0E0EEE2F6E00C94E40B85E08C83CD
:100C60008B899C899A838983AE01495E5F4F6D8928
:100C70007E89CE0101960E94A6092E96E2E00C9490
:100C8000000CABE0B0E0E7E4F6E00C94D40B7C01A0
:100C90003B018A01FC0117821682838181FFC8C152
:100CA000CE0101965C01F7019381F30193FD8591DB
:100CB00093FF81913F01882309F453C1853239F4B0
:100CC00093FD859193FF81913F01853229F4B7010E
:100CD00090E00E94110BE7CF912C212C312CFFE1E9
:100CE000F31538F08B3211F190F4803209F1833230
:100CF00029F137FC3CC020ED280F2A3050F536FE94
:100D000020C08AE0989E200D1124922E06C08D32BC
:100D100091F0803371F7689430F8F30193FD859179
:100D200093FF81913F018111DACF21C0689431F89E
:100D3000689432F8F2CF689433F8EFCF689434F8BF
:100D4000ECCFEAE02E9E200D1124222E689435F877
:100D5000E4CF8E3229F436FC04C1689436F8DDCF36
:100D60008C3619F4689437F8D8CF8836B1F2982FBA
:100D70009F7D95549330E0F08336A1F18337C1F124
:100D8000833509F063C02801F2E04F0E511CF801D1
:100D9000C080D180692D70E036FC02C06FEF7FEF1C
:100DA000C6010E94BF0A4C01689437F882010AC04C
:100DB0000C5F1F4FFFE3F98388248394912C650116
:100DC000E89437F833FE2DC0522C8114910471F54C
:100DD000552009F468CFB70180E290E00E94110B22
:100DE0005A94F6CFF801808189830E5F1F4FE4CFBC
:100DF0002801F2E04F0E511CF801C080D180692D0E
:100E000070E036FC02C06FEF7FEFC6010E94CA0A95
:100E10004C018201D5CFB70180E290E00E94110B16
:100E20002A942814190409F0B0F7CECFF60137FC44
:100E3000859137FE81916F01B70190E00E94110BFF
:100E400051105A94F1E08F1A9108BFCF843619F0EF
:100E5000893609F077C0F80137FE6BC06081718177
:100E6000828193810C5F1F4FF32DFF763F2E97FFFA
:100E700009C090958095709561957F4F8F4F9F4FDA
:100E8000689437F82AE030E0A5010E94590BC82E7B
:100E9000CA188C2C432C36FE0CC0E89440F8C914B8
:100EA00040F434FE05C032FC03C0F32DFE7E4F2E0D
:100EB000892C44FE95C0FE01EC0DF11D808180332C
:100EC00009F087C0242D297E422E842D8870582E4B
:100ED00043FC95C040FE8FC09C2C821418F42C0C4F
:100EE000922C981844FE91C0B70180E390E00E94D4
:100EF000110B42FE09C088E790E041FE02C088E580
:100F000090E0B7010E94110BC91408F48AC0CA947A
:100F1000D12C9FEFC91AD90ACA0CDB1CF6018291A9
:100F20006F01B70190E00E94110BAC14BD04B1F742
:100F30004FCF60817181072E000C880B990B0E5FDB
:100F40001F4F92CFD32CE894D4F82AE030E08537B5
:100F500039F1232D297FD22E8F3601F148F48835BF
:100F6000A9F0F701868197812B96E2E10C94F00BB2
:100F7000803749F08837A9F7D4FE02C06894D2F8C8
:100F800020E130E00DC06894D4F8F6CF34FE03C001
:100F9000822F8660D82E20E132E002C028E030E0C7
:100FA000F801D7FE0FC060817181828193810C5F4F
:100FB0001F4FA5010E94590BC82ECA183D2CE8945A
:100FC00037F867CF6081718190E080E00E5F1F4F3E
:100FD000F0CF42FC02C0839478CF8394839475CF82
:100FE000842D867809F471CFF6CFB70180E290E0C6
:100FF0000E94110B83948214C0F3512C73CF522C96
:101000005818821408F46ECFF8CF842D867809F42E
:101010007BCF8BE241FE80E247FC8DE2B70190E09E
:1010200071CFB70180E390E00E94110B9A946CCFCE
:101030008FEF9FEF99CF20FD09C0FC0123FD05C074
:1010400022FF02C07383628351834083089544FD6D
:1010500017C046FD1DC0DB01FC01AA0FBB1FEE1F20
:10106000FF1F1094D1F76A0F7B1F8E1F9F1F660F03
:10107000771F881F991F620F711D811D911D089593
:1010800033E0660F771F881F991F3150D1F7F3CFD8
:1010900034E0F7CF0F931F93CF93DF938C01C801F8
:1010A0000E94D50AEC0197FD08C00E94AB0A892B6B
:1010B000B1F7B801CE010E94410BCE01DF91CF9173
:1010C0001F910F9108958F929F92AF92BF92EF92CE
:1010D000FF920F931F93CF93DF938C01D62F7A014A
:1010E000B22E0E94D50A9C0133272B32310529F0FC
:1010F0002D323105A9F46894B7F8D15061F480E03D
:10110000DF91CF911F910F91FF90EF90BF90AF9023
:101110009F908F900895C8010E94D50A97FDEFCF48
:10112000CB2DCD7F2B2D2073F9F48033E9F4AA2445
:10113000AA94AD0E89F0C8010E94D50A97FD0CC093
:10114000282F2F7D283561F4C264D25029F0C801C0
:101150000E94D50A97FF08C0812C912C54011BC016
:10116000B6FE2BC0C260DA2D812C912C540120EDEB
:10117000280F283028F1C4FD09C02A3008F1C6FF25
:1011800005C02F7D3FEE320F3630C8F0B8010E9407
:10119000410BC1FFB4CFC7FF08C0B094A094909496
:1011A0008094811C911CA11CB11C2C2FB501A401A1
:1011B000C7010E941B0881E0A3CFC261D4CF275092
:1011C0004C2FC501B4010E9427084B015C01C2608D
:1011D000D15009F3C8010E94D50A97FFC8CFD9CFD3
:1011E000A0E2B0E0E6EFF8E00C94D90B5C01962E9B
:1011F0007A01CE0101966C0180E2F60111928A9586
:10120000E9F7F501B381890130E020E0712C812CF0
:10121000A0E041E050E0F801B3FD8591B3FF81917A
:10122000982F8F01811107C010E000E0C801A0963F
:10123000EDE00C94F50B8E3519F42115310541F1D3
:10124000A21713064CF48D3549F18D3229F4811023
:1012500006C0882483941DC0882009F464C0E92F47
:10126000E695E695E695EC0DFD2DF11D892F87702D
:10127000BA0101C0660F8A95EAF78081682B608306
:10128000791651F0971510F49F5FE9CF9150E7CF91
:10129000A1E02F5F3F4FBFCF812CFBCF882019F0FB
:1012A0008E8180628E83AA2359F0F6019E012F5D04
:1012B0003F4F8081809580833196E217F307C9F70D
:1012C00088248394C5010E94D50A97FD16C0E82F93
:1012D000E695E695E695EC0DFD2DF11D208130E0BB
:1012E000AC014770552702C0359527954A95E2F71E
:1012F00020FD06C0B5010E94410B882069F094CF03
:10130000E114F10429F0F7018083C70101967C0103
:101310009A94812C9110D6CFE114F10409F486CF70
:10132000F701108283CFE82FE695E695E695EC0D60
:10133000FD2DF11D982F9770BA0101C0660F9A9587
:10134000EAF79081692B6083782EA3CFB0E0A0E00C
:10135000ECEAF9E00C94D70B6C01EB015A01FC01AB
:1013600017821682512CF601E380FE01E3FC859181
:10137000E3FE8191182FEF018823E9F090E00E94AD
:10138000AB0A892B21F0C6010E944A08ECCF153226
:1013900041F4FE01E3FC1591E3FE1191EF011532DA
:1013A00069F4C6010E94D50A97FD8EC01817D9F2BC
:1013B000B6010E94410B852D90E08AC000E01A32F0
:1013C00031F4E3FC1591E3FE1191EF0101E0F12C02
:1013D00020ED210F2A3048F101FF37C0FF2059F3DB
:1013E0001836B1F11C3609F43DC0112321F3612FE9
:1013F00070E088E690E00E94B40A892BE1F2912C1B
:10140000812C00FD06C0F50180809180C501029607
:101410005C011E3679F5F6014681578170E060E087
:10142000202FC4010E941B089ECF02606F2D70E028
:1014300090E080E040E20E942708F62EFE01E3FCE7
:101440001591E3FE1191EF01C3CFFF24FA94C8CFA9
:10145000FE01E3FC1591E3FE1191EF01183609F04E
:10146000C4CF08600460FE01E3FC1591E3FE119116
:10147000EF01BBCF1336C1F401FD02C0FF24F3948A
:10148000C6010E94D50A97FD1FC08114910429F05E
:10149000F4018083C40101964C01FA94F110F0CF5D
:1014A00000FD61CF53945FCF1B35B9F49E01A401B9
:1014B0006F2DC6010E94F008EC01892B89F7F60117
:1014C0008381807309F477CF8FEF9FEF511073CF33
:1014D000CDB7DEB7EFE00C94F30BC6010E944A08CB
:1014E00097FDF2CF1F36A9F130F4143641F01936CA
:1014F00039F0006405C01337B9F01537D1F7006231
:10150000202FA4016F2DC6010E9463088111C8CF4E
:10151000D6CF8114910429F0F4016082C4010196B0
:101520004C01FA94FF2071F0C6010E94D50A3C01DB
:1015300097FD08C00E94AB0A892B59F3B601C3017D
:101540000E94410B8114910409F4AACFF401108286
:10155000A7CF0061D5CF91110C94B70B803219F051
:1015600089508550C8F70895FC010590061621F0B2
:101570000020D9F7C00108953197CF010895FC01EB
:101580000590615070400110D8F7809590958E0FAE
:101590009F1F0895FC016150704001900110D8F721
:1015A000809590958E0F9F1F0895CF93DF93EC0148
:1015B0002B8120FF1AC026FF0CC02F7B2B838E812E
:1015C0009F8101969F838E838A8190E0DF91CF91E6
:1015D000089522FF18C0E881F9818081082E000C4F
:1015E000990B009729F420622B838FEF9FEFEECFAA
:1015F0003196F983E8832E813F812F5F3F4F3F83F0
:101600002E839927E3CFEA85FB85099597FFF3CFD2
:101610002B81019621F080E2822B8B83E6CF80E143
:10162000FBCF0F931F93CF93DF93182F092FEB015D
:101630008B8181FD09C01FEF0FEF812F902FDF916C
:10164000CF911F910F91089582FF14C02E813F8189
:101650008C819D81281739073CF4E881F981CF01FD
:1016600001969983888310838E819F8101969F8341
:101670008E83E3CFE885F985812F0995892BA1F326
:10168000DACFFB01238120FF11C026FD0FC08F3F61
:10169000980771F082832F7D206423832681378110
:1016A0002150310937832683992708958FEF9FEFC3
:1016B0000895FA01AA27283051F1203181F1E894E8
:1016C0006F936E7F6E5F7F4F8F4F9F4FAF4FB1E035
:1016D0003ED0B4E03CD0670F781F891F9A1FA11D30
:1016E000680F791F8A1F911DA11D6A0F711D811D31
:1016F000911DA11D20D009F468943F912AE0269FF6
:1017000011243019305D3193DEF6CF010895462F54
:101710004770405D4193B3E00FD0C9F7F6CF462F35
:101720004F70405D4A3318F0495D31FD405241939E
:1017300002D0A9F7EACFB4E0A6959795879577955B
:101740006795BA95C9F700976105710508959B01E2
:10175000AC010A2E06945795479537952795BA956B
:10176000C9F7620F731F841F951FA01D0895992745
:1017700088270895F999FECF92BD81BDF89A9927DF
:1017800080B50895262FF999FECF92BD81BDF89AB4
:10179000019700B4021639F01FBA20BD0FB6F894B5
:1017A000FA9AF99A0FBE08952F923F924F925F9244
:1017B0006F927F928F929F92AF92BF92CF92DF9261
:1017C000EF92FF920F931F93CF93DF93CDB7DEB7C6
:1017D000CA1BDB0B0FB6F894DEBF0FBECDBF09945A
:1017E0002A88398848885F846E847D848C849B84B1
:1017F000AA84B984C884DF80EE80FD800C811B81BF
:10180000AA81B981CE0FD11D0FB6F894DEBF0FBEED
:0A181000CDBFED010895F894FFCF5D
:10181A004D61783D202020202020202020202020DB
:10182A00004D61783D202020200025642E2564008B
:10183A00636D2F73002020202020202020202020CC
:10184A0020202020200054696D696E672E2E2E00FC
:10185A00256C64006D7300546F6F6B20746F6F207A
:10186A006C6F6E67210044656E6E69732057616EF6
:08187A0067005B25645D0000BE
:00000001FF
