:100000000C9434000C9451000C9451000C94510049
:100010000C9466000C94C8000C9451000C94510090
:100020000C9451000C9451000C9451000C9451000C
:100030000C9451000C9451000C9451000C945100FC
:100040000C9451000C9451000C9451000C945100EC
:100050000C9451000C9451000C9451000C945100DC
:100060000C9451000C94510011241FBECFEFD8E026
:10007000DEBFCDBF11E0A0E0B1E0E6E3FBE002C0EF
:1000800005900D92A034B107D9F721E0A0E4B1E0CA
:1000900001C01D92A934B207E1F70E94D1010C946E
:1000A00099050C940000E1E8F0E08081886080838D
:1000B000109285001092840084E294EF909389005E
:1000C0008093880080818560808308951F920F92BD
:1000D0000FB60F9211242F933F934F935F936F931B
:1000E0007F938F939F93AF93BF93EF93FF9386B1CB
:1000F00081FD18C081E080934301809342010E94FA
:100100005300FF91EF91BF91AF919F918F917F919C
:100110006F915F914F913F912F910F900FBE0F9074
:100120001F90189582FDEDCF81E0809343011092DE
:1001300042018091840090918500909341018093C9
:1001400040018091810080938100DBCF8130910557
:1001500089F480910001909101018336910549F065
:10016000809100019091010101969093010180938B
:1001700000010895892BE9F7809100019091010118
:100180000197B9F380910001909101010197EDCFA2
:100190001F920F920FB60F9211242F933F934F93FC
:1001A0005F936F937F938F939F93AF93BF93EF93DF
:1001B000FF9389B121E082FB992790F992279093D0
:1001C000480183FB882780F982278093450180912D
:1001D0004601811114C080914801813031F480932F
:1001E000470181E090E00E94A600809145018130A6
:1001F000F9F482E08093470190E080E017C080919D
:100200004601813099F580914801811106C0109214
:10021000470190E080E00E94A60080914501813076
:1002200039F483E08093470181E090E00E94A600CA
:100230009091470180914601981739F081E08093B1
:1002400044018091470180934601FF91EF91BF9156
:10025000AF919F918F917F916F915F914F913F915E
:100260002F910F900FBE0F901F901895809146010F
:10027000823091F480914801813039F483E0809399
:10028000470190E080E00E94A60080914501811125
:10029000CFCF10924701C8CF80914801811107C08C
:1002A00082E08093470181E090E00E94A600809167
:1002B00045018111BDCF81E09DCF9BB19F709BB95E
:1002C0009BB1807F892B8BB9299A299A299A2998E1
:1002D0000895CF93C82F28980E945D018C2F829596
:1002E000807F0E945D018FE39FE10197F1F700C0DD
:1002F0000000CF910895811104C080E8860F0C940E
:10030000690180ECFBCF84B1836084B98AB1806FCE
:100310008AB98FE59AEE0197F1F700C0000080E3FB
:100320000E945D018FE19EE40197F1F700C000009B
:1003300080E30E945D018FED91E00197F1F700C02D
:10034000000080E30E945D0180E20E945D018FE376
:100350009FE10197F1F700C0000088E20E94690167
:100360008FE00C946901CF93C82F289A0E945D01F9
:100370008C2F8295807F0E945D018FE39FE1019722
:10038000F1F700C00000CF910895CF93DF93EC0107
:100390008991811103C0DF91CF9108950E94B3012B
:1003A000F7CFCF93DF9300D000D000D01F92CDB70E
:1003B000DEB788B1866088B98BB18C608BB90E943A
:1003C000830181E00E94690182E091E00E94C50101
:1003D00060E081E00E947B0180E191E00E94C50124
:1003E0002FEF83ED90E3215080409040E1F700C073
:1003F000000081E00E94690160E080E00E947B01D2
:1004000078948091680084608093680080916D008A
:100410008C6080936D00809168008260809368009A
:1004200080916C00866080936C0089B121E082FB32
:10043000992790F992279093480183FB882780F9A8
:1004400082278093450180914501811172C080917E
:10045000480181116EC0109246018091460180933F
:10046000470181E2E82E81E0F82E93E0C92E8E014B
:100470000F5F1F4F27E0D22E80914401882341F166
:100480001092440160E081E00E947B018CE191E0E8
:100490000E94C50180E391E00E94C50164E081E013
:1004A0000E947B0180910001909101019F938F93A5
:1004B000FF92EF921F92CF921F930F930E94B4026C
:1004C000C8010E94C5010FB6F894DEBF0FBECDBFB4
:1004D00080914301882381F21092430160E080E023
:1004E0000E947B0184E291E00E94C50160E080E00F
:1004F0000E947B0180914201882399F183E391E07E
:100500000E94C50180914001909141019F938F937A
:10051000FF92EF921F92DF921F930F930E94B402FB
:10052000C8010E94C5010FB6F894DEBF0FBECDBF53
:10053000A3CF80914501811108C080914801882393
:1005400021F081E08093460188CF80914501882386
:1005500031F080914801811102C082E0F3CF83E045
:10056000F1CF8AE391E0CCCFAEE0B0E0EAEBF2E08D
:100570000C9470050D891E898F89988D26E02C8337
:100580001A83098397FF02C080E090E801979E8359
:100590008D83AE01455E5F4F698D7A8DCE010196E8
:1005A0000E94E4024D815E8157FD0AC02F8138858B
:1005B000421753070CF49A01020F131FF80110821F
:1005C0002E96E4E00C948C05ABE0B0E0EAEEF2E0AD
:1005D0000C9462057C013B018A01FC0117821682A2
:1005E000838181FFC8C1CE0101965C01F70193812F
:1005F000F30193FD859193FF81913F01882309F4D5
:1006000053C1853239F493FD859193FF81913F0168
:10061000853229F4B70190E00E94D404E7CF912CF1
:10062000212C312CFFE1F31538F08B3211F190F4CD
:10063000803209F1833229F137FC3CC020ED280FCC
:100640002A3050F536FE20C08AE0989E200D1124F5
:10065000922E06C08D3291F0803371F7689430F895
:10066000F30193FD859193FF81913F018111DACFD1
:1006700021C0689431F8689432F8F2CF689433F866
:10068000EFCF689434F8ECCFEAE02E9E200D1124D1
:10069000222E689435F8E4CF8E3229F436FC04C15A
:1006A000689436F8DDCF8C3619F4689437F8D8CFD3
:1006B0008836B1F2982F9F7D95549330E0F08336C1
:1006C000A1F18337C1F1833509F063C02801F2E05D
:1006D0004F0E511CF801C080D180692D70E036FCAE
:1006E00002C06FEF7FEFC6010E94BE044C01689408
:1006F00037F882010AC00C5F1F4FFFE3F98388249B
:100700008394912C6501E89437F833FE2DC0522C68
:100710008114910471F5552009F468CFB70180E286
:1007200090E00E94D4045A94F6CFF8018081898326
:100730000E5F1F4FE4CF2801F2E04F0E511CF8016D
:10074000C080D180692D70E036FC02C06FEF7FEF72
:10075000C6010E94C9044C018201D5CFB70180E2D5
:1007600090E00E94D4042A942814190409F0B0F7E8
:10077000CECFF60137FC859137FE81916F01B7012D
:1007800090E00E94D40451105A94F1E08F1A91081D
:10079000BFCF843619F0893609F077C0F80137FEEB
:1007A0006BC060817181828193810C5F1F4FF32D3B
:1007B000FF763F2E97FF09C09095809570956195C3
:1007C0007F4F8F4F9F4F689437F82AE030E0A501A4
:1007D0000E940405C82ECA188C2C432C36FE0CC06F
:1007E000E89440F8C91440F434FE05C032FC03C05C
:1007F000F32DFE7E4F2E892C44FE95C0FE01EC0D9C
:10080000F11D8081803309F087C0242D297E422E7E
:10081000842D8870582E43FC95C040FE8FC09C2CC0
:10082000821418F42C0C922C981844FE91C0B70135
:1008300080E390E00E94D40442FE09C088E790E083
:1008400041FE02C088E590E0B7010E94D404C914BB
:1008500008F48AC0CA94D12C9FEFC91AD90ACA0CCD
:10086000DB1CF60182916F01B70190E00E94D40475
:10087000AC14BD04B1F74FCF60817181072E000C1D
:10088000880B990B0E5F1F4F92CFD32CE894D4F8AE
:100890002AE030E0853739F1232D297FD22E8F369B
:1008A00001F148F48835A9F0F701868197812B96EC
:1008B000E2E10C947E05803749F08837A9F7D4FE31
:1008C00002C06894D2F820E130E00DC06894D4F8FA
:1008D000F6CF34FE03C0822F8660D82E20E132E0AE
:1008E00002C028E030E0F801D7FE0FC060817181BE
:1008F000828193810C5F1F4FA5010E940405C82EC1
:10090000CA183D2CE89437F867CF6081718190E078
:1009100080E00E5F1F4FF0CF42FC02C0839478CF7F
:100920008394839475CF842D867809F471CFF6CFA4
:10093000B70180E290E00E94D40483948214C0F353
:10094000512C73CF522C5818821408F46ECFF8CF64
:10095000842D867809F47BCF8BE241FE80E247FC50
:100960008DE2B70190E071CFB70180E390E00E9483
:10097000D4049A946CCF8FEF9FEF99CFFC01059030
:10098000615070400110D8F7809590958E0F9F1F91
:100990000895FC016150704001900110D8F78095D6
:1009A00090958E0F9F1F08950F931F93CF93DF9302
:1009B000182F092FEB018B8181FD09C01FEF0FEF6D
:1009C000812F902FDF91CF911F910F91089582FF7A
:1009D00014C02E813F818C819D81281739073CF4FA
:1009E000E881F981CF0101969983888310838E81F4
:1009F0009F8101969F838E83E3CFE885F985812FC0
:100A00000995892BA1F3DACFFA01AA27283051F1F1
:100A1000203181F1E8946F936E7F6E5F7F4F8F4F2F
:100A20009F4FAF4FB1E03ED0B4E03CD0670F781F8E
:100A3000891F9A1FA11D680F791F8A1F911DA11D73
:100A40006A0F711D811D911DA11D20D009F46894AC
:100A50003F912AE0269F11243019305D3193DEF654
:100A6000CF010895462F4770405D4193B3E00FD00A
:100A7000C9F7F6CF462F4F70405D4A3318F0495DF5
:100A800031FD4052419302D0A9F7EACFB4E0A695D8
:100A90009795879577956795BA95C9F700976105FA
:100AA000710508959B01AC010A2E06945795479550
:100AB00037952795BA95C9F7620F731F841F951F45
:100AC000A01D08952F923F924F925F926F927F9256
:100AD0008F929F92AF92BF92CF92DF92EF92FF924E
:100AE0000F931F93CF93DF93CDB7DEB7CA1BDB0BFA
:100AF0000FB6F894DEBF0FBECDBF09942A8839889F
:100B000048885F846E847D848C849B84AA84B984A5
:100B1000C884DF80EE80FD800C811B81AA81B981B1
:100B2000CE0FD11D0FB6F894DEBF0FBECDBFED01C5
:060B30000895F894FFCFC8
:100B3600010046696E616C2050726F6A65637400CD
:100B460054696D6F746879204C696E004D61783D0B
:100B56000025640020202020202020202020202086
:100B66002020005354415254200053544F5020002B
:00000001FF
